:100000000C94C7010C94EF010C94EF010C94EF01D8
:100010000C94EF010C94EF010C94EF010C94EF01A0
:100020000C94EF010C94EF010C94EF010C94EF0190
:100030000C94EF010C94EF010C94EF010C94EF0180
:100040000C94731A0C94EF010C94EF010C94EF01D3
:100050000C94EF010C94EF010C94EF010C94EF0160
:100060000C94BD1A0C94EF0160000202020302041A
:1000700004030500000500050000E701D102AC20E3
:1000800004C066210656644E012206CB65920A23FF
:10009000085764D2504305240757E4D290432508FB
:1000A000D364521AA900260857E4621A32012705C0
:1000B000EAE506280676E4541929075664624A0AD6
:1000C0002A07576452B51A2B07CFE4D24A002C05F1
:1000D0004AE4062D054765062E064A6446002F08A9
:1000E0005764AB982200300757E42AAB023106561A
:1000F000E45603320857643448E500330857643443
:1001000048720434085764923562003508576446D3
:10011000D46001360757E4E648233708576466156C
:10012000130038085764461A6A0439085764461A97
:1001300071013A075664461C013B075664460603A4
:100140003C085764530D32083D06CF6436183E090B
:10015000576432C82095003F08576466D228014092
:100160000757E4AE0C0441085764461A4A05420892
:100170005764465A690443075764462C0744085796
:100180006454B2160045075764461C71460857640C
:10019000461C310247085764464C6A0448085764B5
:1001A000921A4A054907576456AC064A0757644BEA
:1001B00035024B085764925A49054C0657646273DE
:1001C0004D085764D25056004E0757644672054F8B
:1001D00008576446B2460050085764461A32025126
:1001E00007576446525352085764465A4905530705
:1001F0005764463C0254075764566C0155075764D0
:10020000926B045607576492AB02570857649235B5
:10021000540058095764D24869A400590957649298
:100220001A2926005A075764662A075B0676645621
:10023000255C09576462063183005D0656645435B7
:100240005E05CBE51A5F054764066006EA65920025
:1002500061065364D61162085764E2486A04630772
:100260005364468C036407576487522365065364BE
:10027000463A660757E4A68A1167075364464A431D
:1002800068085764E24856006906716446006A07C8
:100290005364A31A016B085764625AAA006C06568D
:1002A0006454076D075364D2502A6E07536446B2F4
:1002B000026F07536446522370075364461A127143
:1002C000075364461A3172075364469211730753F9
:1002D00064861C02740757E4D28A517507536492EE
:1002E00035027607536492550177075364921A2AB0
:1002F0007807536452990A79085364924A23017A21
:10030000075364D648037B0757E45492517C067523
:100310006486007D085764645449017E064B65A4D9
:10032000007F0857E454AC140000000004FFFF00F5
:100330000000000000240027002A00000000002523
:100340000028002B000000000023002600290004E4
:10035000040404040404040202020202020303036C
:100360000303030102040810204080010204081066
:100370002001020408102000000008000201000013
:10038000030407000000000000000000101D1124FD
:100390001FBECFEFD8E0DEBFCDBF11E0A0E0B1E0DF
:1003A000EAEFF3E402C005900D92AA39B107D9F73C
:1003B00027E0AAE9B1E001C01D92A138B207E1F738
:1003C00011E0C7ECD1E004C02197FE010E94E921B1
:1003D000C63CD107C9F70E94CD1D0C94FB210C949B
:1003E0000000CF92DF92EF92FF920F931F93CF9373
:1003F000DF936C01EB017B01E40EF51E00E010E0E1
:10040000CE15DF0561F06991D601ED91FC91019067
:10041000F081E02DC6010995080F191FF1CFC80121
:10042000DF91CF911F910F91FF90EF90DF90CF90D0
:100430000895089580E090E008951F93CF93DF938F
:10044000EC01962F642F9C3270F49A3208F058C059
:10045000983289F0993209F03EC070E080E090E077
:100460000E94391A4DC09D32B1F0A8F184EB890F7A
:10047000823000F130C06F9610E089918F3F39F0E3
:10048000103110F461E001C062E00E94FD191F5FAD
:10049000163199F735C0433018F082E090E002C081
:1004A00085E090E0880F991F880F991F05970197A5
:1004B000F1F726C09F73C90FD11D411107C061E03C
:1004C0008F8D0E94FD1960E08F8D10C062E08F8DCE
:1004D0000E94FD1915C09034A8F09F73FE01E90F2A
:1004E000F11D878D8F3F61F0903118F40E94CD1976
:1004F00007C00E94A41921E0892B09F420E02A8F6B
:1005000081E001C080E0DF91CF911F9108950F93AA
:100510001F93CF93DF93EC018C010C5F1F4FFC0105
:10052000E058FF4F0190F081E02DC80109958E3F02
:100530002FEF920780F4FE01ED57FF4FCE57DF4FAC
:100540009C0140816881C8010E946B16288190E05F
:10055000820F911D888381E090E0DF91CF911F9100
:100560000F910895CF93DF9320919A01213099F153
:1005700038F0223009F4AAC0233009F42FC1DAC1BF
:1005800090E070E0B5E1B89FA001B99F500D112433
:10059000FA01E60FF71FE556FE4FA1E0A0839B018D
:1005A00021503109420F531FFA01E556FE4FA08337
:1005B0000197B89FF001B99FF00D11246E0F7F1FB6
:1005C000EB01C556DE4FA8832E0F3F1FF901E556FC
:1005D000FE4FA083AFC130910001313069F108F4C2
:1005E00051C0323009F44EC0333009F0A3C190E05D
:1005F00070E035E1389FD001399FB00D1124FD0125
:10060000E556FE4FE60FF71F2183A60FB71FA5562D
:10061000BE4F2C930196389FA001399F500D112495
:10062000FA01E60FF71FE556FE4F2083640F751F92
:10063000FB01E656FE4F58C190E070E025E1289F8F
:10064000D001299FB00D1124FD01E556FE4FE60FA4
:10065000F71F3183A60FB71FA556BE4F3C930196D7
:10066000289FA001299F500D1124FA01E60FF71FC2
:10067000E556FE4F3083640F751FFB01E656FE4FB3
:10068000308358C190E070E035E1389FA001399F78
:10069000500D1124FA01E60FF71FE556FE4F208397
:1006A000DC0111963A9FF0013B9FF00D1124E60FFB
:1006B000F71FE556FE4F208361507109460F571F03
:1006C000FA01E556FE4F2083019704C120910001F5
:1006D000213081F108F455C0223009F452C0233092
:1006E00009F028C190E0FC01319770E055E15E9F70
:1006F00090015F9F300D1124F901E60FF71FE556B9
:10070000FE4F41E04083260F371FF901E656FE4FAA
:100710004083589FF001599FF00D1124DF01A60F6F
:10072000B71FA556BE4F4C93E556FE4FE60FF71F79
:10073000418300C190E0FC01319770E035E13E9FBC
:10074000A0013F9F500D1124FA01E60FF71FE55657
:10075000FE4F2083460F571FFA01E656FE4F2083B7
:10076000389FF001399FF00D1124DF01A60FB71F4C
:10077000A556BE4F2C93E556FE4FE60FF71F21837B
:10078000D9C090E070E055E1589F9001599F300D1D
:100790001124F901E60FF71FE556FE4F41E04083B3
:1007A000DC0111975A9FF0015B9FF00D1124E60FB9
:1007B000F71FE556FE4F408361507109260F371F22
:1007C000F901E556FE4F40830196589FF001599F6D
:1007D000F00D11246E0F7F1FFB01A9C020910001B5
:1007E000213009F455C088F1223009F47FC023304C
:1007F00009F0A0C090E070E055E1589F9001599F2A
:10080000300D1124F901E60FF71FE556FE4F41E0C8
:100810004083260F371FD901A656BE4F4C939C012B
:1008200021503109529FF001539FF00D1124E60F22
:10083000F71FE556FE4F40830297589FF001599FDE
:10084000F00D1124E60FF71F72C090E070E035E163
:10085000389FF001399FF00D1124DF01A60FB71F5B
:10086000A556BE4F21E02C930196389FD001399FA9
:10087000B00D1124A60FB71FA556BE4F2C93E556F9
:10088000FE4F6E0F7F1FFB013197208331972CC0E5
:1008900090E070E035E1389FA001399F500D1124A0
:1008A000FA01E60FF71FE556FE4F208345565E4FCF
:1008B000FA01E60FF71F2183AC014F5F5F4F349FB2
:1008C000F001359FF00D1124E60FF71FE556FE4F9E
:1008D00020830296389FF001399FF00D11246E0F8E
:1008E0007F1FFB01E556FE4F208324C090E070E09F
:1008F00035E1389FF001399FF00D1124DF01A60F7B
:10090000B71FA556BE4F21E02C930197389FD00109
:10091000399FB00D1124A60FB71FA556BE4F2C93BB
:10092000E556FE4FE60FF71F2183228303C0E556ED
:10093000FE4F4083DF91CF910895CF93DF93909145
:100940009A01913079F138F0923009F4A8C09330CF
:1009500009F4FAC09FC190E070E0A5E1A89FA00152
:10096000A99F500D1124FA01E60FF71FE556FE4F1F
:1009700010829B0121503109420F531FFA01E556A5
:10098000FE4F10820197A89FA001A99F500D11242E
:10099000640F751FFB01E556FE4F1082240F351FB3
:1009A000F90175C190910001913071F108F450C0C6
:1009B000923009F44DC0933009F06CC190E0E62FFD
:1009C000F0E065E1689FA001699F500D1124DA01F4
:1009D000A556BE4FAE0FBF1F11961C924E0F5F1F44
:1009E000DA01A556BE4F1C920196689F9001699F3F
:1009F000300D1124D901AE0FBF1FA556BE4F1C925A
:100A00002E0F3F1FF90148C090E0E62FF0E025E1EE
:100A1000289FD001299FB00D1124ED01C556DE4F4E
:100A2000CE0FDF1F1982AE0FBF1FA556BE4F1C92FF
:100A30000196289FA001299F500D1124DA01AE0FC5
:100A4000BF1FA556BE4F1C924E0F5F1FFA0124C058
:100A500090E070E045E1489F9001499F300D1124DE
:100A6000F901E60FF71FE556FE4F1082DC011196E3
:100A70004A9FF0014B9FF00D1124E60FF71FE5563A
:100A8000FE4F108261507109260F371FF901E5569C
:100A9000FE4F10820197D2C0E656FE4FFAC09091E9
:100AA0000001913051F128F0923019F0933029F182
:100AB000F1C090E070E045E1489F9001499F300D02
:100AC0001124F901E60FF71FE556FE4F1082DC01F5
:100AD00011974A9FF0014B9FF00D1124E60FF71F6D
:100AE000E556FE4F108261507109260F371FF9013C
:100AF000E556FE4F10820196A1C090E0FC013197AF
:100B000070E045E14E9F90014F9F300D1124F90197
:100B1000E60FF71FE556FE4F1082260F371FF9012B
:100B2000E656FE4F1082489FF001499FF00D1124B8
:100B3000DF01A60FB71FA556BE4F1C92E556FE4F0C
:100B4000E60FF71F1182A6C090910001913009F4C1
:100B500053C080F1923009F47AC0933009F09AC002
:100B600090E070E045E1489F9001499F300D1124CD
:100B7000F901E60FF71FE556FE4F1082260F371FCB
:100B8000D901A656BE4F1C929C0121503109429FAB
:100B9000F001439FF00D1124E60FF71FE556FE4FBD
:100BA00010820297489FF001499FF00D1124E60F33
:100BB000F71F6DC090E070E025E1289FF001299FAC
:100BC000F00D1124DF01A60FB71FA556BE4F1C92D2
:100BD0000196289FD001299FB00D1124A60FB71FA1
:100BE000A556BE4F1C92E556FE4F6E0F7F1FFB01B0
:100BF0003197108231974DC090E070E045E1489FF9
:100C00009001499F300D1124F901E60FF71FE556B9
:100C1000FE4F108225563E4FF901E60FF71F118255
:100C20009C012F5F3F4F429FF001439FF00D112425
:100C3000E60FF71FE556FE4F10820296489FF0011F
:100C4000499FF00D11246E0F7F1FFB0120C090E023
:100C500070E025E1289FF001299FF00D1124DF01AC
:100C6000A60FB71FA556BE4F1C920197289FD00113
:100C7000299FB00D1124A60FB71FA556BE4F1C9279
:100C8000E556FE4FE60FF71F1182128203C0E556AC
:100C9000FE4F1082DF91CF910895EF92FF920F9354
:100CA0001F93CF93DF93E82F90919A01913009F42D
:100CB00071C040F0923009F414C4933009F482C733
:100CC0000C940511413039F128F0423009F43FC04D
:100CD0000C94051170E06F5F7F4F25E190E0AB0150
:100CE0002E9F400D511D1124FA01E556FE4F308113
:100CF00031110C9406110197289FF001299FF00DE6
:100D000011246E0F7F1FFB01E556FE4F908181E09D
:100D100089270C948D11E82FF0E0319670E085E181
:100D20008E9FE0018F9FD00D1124FE01E60FF71F6B
:100D3000E556FE4F808181110C9408116C0F7D1FC8
:100D4000EB01C656DE4F888184270C948D1190E00C
:100D5000029770E025E1289FA001299F500D1124E2
:100D6000EA01C60FD71FC556DE4F888181110C944A
:100D70000A11640F751FDB01A656BE4F9C9191119D
:100D80000C948D1181E0E23010F00C948D1180E014
:100D90000C948D1130910001313009F4EFC040F016
:100DA000323009F4D8C1333009F4BBC20C940511B8
:100DB000423009F471C038F4442369F0413009F439
:100DC0003DC00C940511433009F494C0443009F43B
:100DD000B3C00C94051170E09B012F5F3F4FB5E14C
:100DE000482F50E0E901B89FC00DD11D1124FE012C
:100DF000E556FE4F808181110C940C11EA01219679
:100E0000BC9FF001BD9FF00D11242E0F3F1FF90173
:100E1000E556FE4F208121110C948D11415051094E
:100E2000B49FF001B59FF00D11246E0F7F1FFB01E1
:100E3000E556FE4F808189270C948D11082F10E014
:100E400070E098012E5F3F4F95E1929FE001939FE4
:100E5000D00D1124C60FD71FC556DE4F88818111D2
:100E60000C940E117801DFEFED1AFD0A9E9D8001B2
:100E70009F9D100D1124600F711FDB01A656BE4F00
:100E80009C9191110C948D1181E0E83010F40C9438
:100E90008D1180E00C948D11082F10E070E0980106
:100EA0002150310995E1929FE001939FD00D1124CB
:100EB000C60FD71FC556DE4F888181110C941011C3
:100EC000780122E0E21AF1089E9D80019F9D100D9D
:100ED0001124600F711FDB01A656BE4F9C9191112A
:100EE0000C948D1181E0E23010F00C948D1180E0B3
:100EF0000C948D11E82FF0E070E09F012F5F3F4FC1
:100F000085E1829FE001839FD00D1124C60FD71F7A
:100F1000C656DE4F288121110C9412118E9FD001EC
:100F20008F9FB00D1124A556BE4FFD01E60FF71F90
:100F3000818189270C948D11E82FF0E070E09F01EA
:100F40002F5F3F4F85E1829FE001839FD00D1124E9
:100F5000C60FD71FC656DE4F288121110C941411DD
:100F60008E9FD0018F9FB00D1124A556BE4FFD015D
:100F7000E60FF71F818189270C948D11423009F407
:100F80006EC030F4442361F04130A1F10C9405119E
:100F9000433009F490C0443009F4B5C00C940511F5
:100FA000E82FF0E0262F30E095E19E9FD0019F9F33
:100FB000B00D1124A556BE4FA20FB31F12968C91EF
:100FC00081110C94161131969E9FA0019F9F500D88
:100FD000112445565E4FFA01E20FF31F91819111E2
:100FE0000C948D1181E0623110F40C948D1180E02D
:100FF0000C948D11082F10E098012E5F3F4F70E088
:1010000095E1929F7001939FF00C1124E701C60FA8
:10101000D71FC556DE4F888181110C9418110F5FC0
:101020001F4F909FE001919FD00D1124C556DE4FB8
:10103000C60FD71F998191110C948D116E0D7F1DD4
:10104000DB01A656BE4F9C9191110C948D1181E04D
:10105000E83010F40C948D1180E00C948D11E82F81
:10106000F0E0DF01119770E095E19A9FA0019B9F4E
:10107000500D1124DA01A60FB71FA556BE4F8C9153
:1010800081110C941A1145565E4FDA01A60FB71F55
:1010900011962C9121110C948D119E9F80019F9F80
:1010A000100D1124600F711FFB01E656FE4F808169
:1010B00083270C948D1170E06150710995E1282F00
:1010C00030E0DB01989FA00DB11D1124A556BE4F45
:1010D0008C9181110C941C1121503109929FD001E7
:1010E000939FB00D11246A0F7B1FDB01A556BE4FE5
:1010F0009C9191110C948D1181E0E1110C948D1152
:1011000080E00C948D1170E06150710995E1282FF9
:1011100030E0DB01989FA00DB11D1124A556BE4FF4
:101120008C9181110C941E1121503109929FD00194
:10113000939FB00D11246A0F7B1FDB01A556BE4F94
:101140009C9191110C948D1181E0E1110C948D1101
:1011500080E00C948D11423009F471C038F44423BE
:1011600069F0413009F43DC00C940511433009F495
:1011700094C0443009F4B3C00C94051170E09B0195
:101180002F5F3F4FA5E1482F50E0E901A89FC00D18
:10119000D11D1124FE01E556FE4F808181110C9472
:1011A0002011EA012196AC9FF001AD9FF00D1124B2
:1011B0002E0F3F1FF901E556FE4F208121110C949F
:1011C0008D1141505109A49FF001A59FF00D1124EC
:1011D0006E0F7F1FFB01E556FE4F808189270C941F
:1011E0008D11082F10E070E098012E5F3F4F95E1C0
:1011F000929FE001939FD00D1124C60FD71FC556B3
:10120000DE4F888181110C9422117801DFEFED1AF5
:10121000FD0A9E9D80019F9D100D1124600F711F7E
:10122000DB01A656BE4F9C9191110C948D1181E06B
:10123000E83010F40C948D1180E00C948D11082F7F
:1012400010E070E098012150310995E1929FE00192
:10125000939FD00D1124C60FD71FC556DE4F88812E
:1012600081110C942411780122E0E21AF1089E9D6C
:1012700080019F9D100D1124600F711FDB01A65688
:10128000BE4F9C9191110C948D1181E0E23010F0D1
:101290000C948D1180E00C948D11E82FF0E070E03B
:1012A0009F012F5F3F4F85E1829FE001839FD00D1B
:1012B0001124C60FD71FC656DE4F288121110C946A
:1012C00026118E9FD0018F9FB00D1124A556BE4FC1
:1012D000FD01E60FF71F818189270C948D11E82FFE
:1012E000F0E070E09F012F5F3F4F85E1829FE001BA
:1012F000839FD00D1124C60FD71FC656DE4F2881FD
:1013000021110C9428118E9FD0018F9FB00D1124B4
:10131000A556BE4FFD01E60FF71F818189270C946A
:101320008D11423009F46BC028F4442351F0413050
:1013300089F16BC7433009F48BC0443009F4ACC069
:1013400064C7E82FF0E0262F30E095E19E9FD001A2
:101350009F9FB00D1124A556BE4FA20FB31F12962A
:101360008C91811177C731969E9FA0019F9F500D50
:10137000112445565E4FFA01E20FF31F918191113E
:101380000C948D1181E0623110F40C948D1180E089
:101390000C948D11282F30E089010E5F1F4F70E0F3
:1013A00085E1809FE001819FD00D1124C60FD71FDA
:1013B000C556DE4F888181114FC72F5F3F4F45E1F2
:1013C000429FE001439FD00D1124C556DE4FC60F4A
:1013D000D71F99819111A1C7409FC001419F900DD6
:1013E0001124680F791FDB01A656BE4F8C91811125
:1013F00035C781E0E83008F490C780E08EC7E82F59
:10140000F0E0DF01119770E025E12A9FA0012B9FFA
:10141000500D1124DA01A60FB71FA556BE4F8C91AF
:1014200081111EC745565E4FDA01A60FB71F1196F0
:101430003C91311172C72E9F80012F9F100D1124F6
:10144000600F711FFB01E656FE4F8081892765C73B
:1014500070E06150710995E1282F30E0DB01989F21
:10146000A00DB11D1124A556BE4F8C918111FAC655
:1014700021503109929FD001939FB00D11246A0F22
:101480007B1FDB01A556BE4F9C91911146C781E0A1
:10149000E11143C780E041C770E061507109282F16
:1014A00030E0DB0145E1849FA00DB11D1124A5565C
:1014B000BE4F8C918111D8C62150310995E1929F80
:1014C000D001939FB00D11246A0F7B1FDB01A5563D
:1014D000BE4F9C91911121C781E0E1111EC780E0B0
:1014E0001CC790910001913009F4E0C038F09230AF
:1014F00009F4B7C1933009F48CC287C6423009F4AD
:1015000069C028F4442351F04130D1F17EC6433004
:1015100009F48AC0443009F4A8C077C670E09B0182
:101520002F5F3F4F95E1482F50E0D901989FA00DC4
:10153000B11D1124FD01E556FE4F8081811196C633
:10154000DA0111979A9FF0019B9FF00D11242E0F45
:101550003F1FF901E556FE4F90819111DEC64F5FA6
:101560005F4F85E1849FF001859FF00D11246E0F80
:101570007F1FFB01E556FE4F908181E08927CDC694
:10158000082F10E070E0C801019625E1289FE001D6
:10159000299FD00D1124C60FD71FC556DE4F888155
:1015A000811166C67801B2E0EB0EF11C95E19E9DBB
:1015B00080019F9D100D1124600F711FDB01A65645
:1015C000BE4F9C919111A9C681E0E83008F4A5C6F0
:1015D00080E0A3C6082F10E070E098012250310986
:1015E00095E1929FE001939FD00D1124C60FD71F64
:1015F000C556DE4F888181113DC67801C1E0EC1AE5
:10160000F1089E9D80019F9D100D1124600F711F98
:10161000DB01A656BE4F9C9191117FC681E0E2305E
:1016200008F07BC680E079C6E82FF0E070E09F010B
:101630002150310985E1829FE001839FD00D112463
:10164000C60FD71FC656DE4F9881911115C68E9FC3
:10165000D0018F9FB00D1124A556BE4FFD01E60F9E
:10166000F71F918181E0892758C6E82FF0E070E0EC
:10167000CF01019725E1289FE001299FD00D11247A
:10168000C60FD71FC656DE4F88818111F7C585E189
:101690008E9FD0018F9FB00D1124A556BE4FFD0126
:1016A000E60FF71F918181E0892737C6423009F4A0
:1016B0005EC028F4442351F0413031F1A6C54330D7
:1016C00009F485C0443009F4A7C09FC5E82FF0E0B5
:1016D00070E085E18E9FE0018F9FD00D1124C556EB
:1016E000DE4FC60FD71F2A812111CAC531978E9FA1
:1016F000D0018F9FB00D1124A556BE4FFD01E60FFE
:10170000F71F8181892709C6282F30E089010F5FE3
:101710001F4F70E095E1909FD001919FB00D112473
:10172000A60FB71FA556BE4F8C918111ABC5929FD6
:10173000D001939FB00D1124A60FB71FA656BE4F20
:101740009C919111EAC585E1809FD001819FB00DE8
:101750001124A556BE4FA60FB71F11968C9181116B
:1017600093C581E0E93008F4D8C580E0D6C5282FBC
:1017700030E0D901129770E095E19A9FA0019B9FFC
:10178000500D1124DA01A60FB71FA556BE4F8C913C
:1017900081117CC5460F571FDA01A656BE4F4C91EA
:1017A0004111BBC521503109929FD001939FB00DCB
:1017B0001124A556BE4FA60FB71F11969C919111EB
:1017C000ACC581E0E23008F0A8C580E0A6C570E0B5
:1017D0006150710995E1282F30E0DB01989FA00D41
:1017E000B11D1124A556BE4F8C91811151C52F5F9B
:1017F0003F4F929FD001939FB00D11246A0F7B1F22
:10180000DB01A556BE4F9C91911187C581E0E9305F
:1018100008F483C580E081C570E06150710995E1ED
:10182000282F30E0DB01989FA00DB11D1124A55693
:10183000BE4F8C9181112EC52F5F3F4F929FD001DB
:10184000939FB00D11246A0F7B1FDB01A556BE4F7D
:101850009C91911162C581E0E93008F45EC580E099
:101860005CC5423009F469C028F4442351F041308A
:10187000D1F1CBC4433009F48AC0443009F4A8C084
:10188000C4C470E09B012F5F3F4F482F50E0C90157
:10189000A5E1EA9F800D911D1124FC01E556FE4F44
:1018A00080818111F9C4DA01119795E19A9FF001C5
:1018B0009B9FF00D11242E0F3F1FF901E556FE4F9F
:1018C000208121112AC54F5F5F4F949FF001959FA2
:1018D000F00D11246E0F7F1FFB01E556FE4F908126
:1018E00081E089271AC5082F10E070E098012F5F6A
:1018F0003F4F95E1929FE001939FD00D1124C60FB9
:10190000D71FC556DE4F88818111C8C47801B2E067
:10191000EB0EF11C9E9D80019F9D100D1124600F08
:10192000711FDB01A656BE4F9C919111F6C481E058
:10193000E83008F4F2C480E0F0C4082F10E070E052
:1019400098012250310995E1929FE001939FD00DBB
:101950001124C60FD71FC556DE4F88818111A0C440
:101960007801C1E0EC1AF1089E9D80019F9D100D49
:101970001124600F711FDB01A656BE4F9C9191117F
:10198000CCC481E0E23008F0C8C480E0C6C4E82FCF
:10199000F0E070E0CF01019725E1289FE001299F49
:1019A000D00D1124C60FD71FC656DE4F8881811176
:1019B00079C485E18E9FD0018F9FB00D1124A5566B
:1019C000BE4FFD01E60FF71F918181E08927A5C475
:1019D000E82FF0E070E09F012150310985E1829FFE
:1019E000E001839FD00D1124C60FD71FC656DE4FCE
:1019F0009881911159C48E9FD0018F9FB00D1124F1
:101A0000A556BE4FFD01E60FF71F918181E08927A2
:101A100084C4423009F45BC028F4442351F04130BF
:101A200039F1F3C3433009F483C0443009F4A5C04D
:101A3000ECC3E82FF0E070E085E18E9FE0018F9F1E
:101A4000D00D1124C556DE4FC60FD71F9A819111B4
:101A50002DC431978E9FD0018F9FB00D1124A556B4
:101A6000BE4FFD01E60FF71F918181E0892755C424
:101A7000282F30E0A9014F5F5F4F70E095E1949F00
:101A80008001959F100D1124E801C60FD71FC55680
:101A9000DE4F888181110CC4929FE001939FD00D8D
:101AA0001124C60FD71FC656DE4F9881911135C439
:101AB00005561E4FD801A60FB71F11969C91911184
:101AC0002CC481E0E93008F428C480E026C4282F23
:101AD00030E0C901029770E0F5E1F89FA001F99F9D
:101AE000500D1124DA01A60FB71FA556BE4F8C91D9
:101AF0008111E0C3460F571FDA01A656BE4F9C91D5
:101B000091110BC42150310985E1829FD001839F3F
:101B1000B00D1124A556BE4FA60FB71F11968C917C
:101B20008111CAC381E0E23008F0F7C380E0F5C359
:101B300070E06F5F7F4F95E1282F30E0DB01989FC9
:101B4000A00DB11D1124A556BE4F8C918111B6C3B5
:101B50002F5F3F4F929FD001939FB00D11246A0FCA
:101B60007B1FDB01A556BE4F9C919111D6C381E02E
:101B7000E93008F4D2C380E0D0C370E06F5F7F4FDC
:101B800095E1282F30E0DB01989FA00DB11D1124B5
:101B9000A556BE4F8C91811193C32F5F3F4F929FEB
:101BA000D001939FB00D11246A0F7B1FDB01A55656
:101BB000BE4F9C919111B1C381E0E93008F4ADC3EF
:101BC00080E0ABC390910001913009F4D7C038F0A8
:101BD000923009F49CC1933009F460C216C34230BC
:101BE00009F45BC028F4442351F0413041F10DC3A6
:101BF000433009F475C0443009F498C006C370E05E
:101C00006F5F7F4F90E09B0145E1E49F200D311D08
:101C10001124F901E556FE4F2081211153C301968D
:101C200025E1289FF001299FF00D11246E0F7F1FE1
:101C3000FB01E556FE4F908181E089276EC3282F76
:101C400030E070E0A9014E5F5F4F95E1949FD001B5
:101C5000959FB00D1124A60FB71FA556BE4F8C91AE
:101C6000811132C32F5F3F4F929FA001939F500D70
:101C700011249A0125563E4F620F731FDB01119705
:101C80009C9191114AC311979C91911146C381E097
:101C9000E83008F442C380E040C390E0019770E070
:101CA00045E1489F9001499F300D1124D901A60FAD
:101CB000B71FA556BE4F8C91811108C325563E4FC4
:101CC000620F731FDB0111979C91911126C311972D
:101CD0008C918111FDC281E0E1111FC380E01DC321
:101CE000282F30E070E0C901029645E1489FE001ED
:101CF000499FD00D1124C60FD71FC556DE4F8881CE
:101D00008111E8C295E1929FD001939FB00D1124FB
:101D1000A556BE4FA60FB71F11969C919111FDC2FB
:101D200081E0E83008F4F9C280E0F7C2282F30E003
:101D300070E0A9014150510995E1949FD001959F10
:101D4000B00D1124A60FB71FA556BE4F8C9181115F
:101D5000C3C222503109929FA001939F500D1124BC
:101D6000640F751FDB01A556BE4F9C919111D5C222
:101D700081E0E23008F0D1C280E0CFC2423009F405
:101D800068C028F4442351F04130C9F13EC24330C9
:101D900009F479C0443009F49CC037C2E82FF0E060
:101DA00070E095E19E9FE0019F9FD00D1124C556E4
:101DB000DE4FC60FD71F8A81811190C26F5F7F4FA0
:101DC0009F012F5F3F4F929FD001939FB00D112431
:101DD000A60FB71FA556BE4F9C9191119EC2329679
:101DE00025E12E9FC0012F9F900D1124680F791FB0
:101DF000FB01E556FE4F908181E089278EC2082FB6
:101E000010E070E0C801039625E1289FE001299FBA
:101E1000D00D1124C60FD71FC556DE4F8881811102
:101E20005FC20F5F1F4F95E1909F9001919F300D12
:101E30001124890105561E4FD801A60FB71F119610
:101E40009C9191116AC281E0E73008F466C280E09B
:101E500064C2E82FF0E0319770E085E18E9FD001F9
:101E60008F9FB00D1124FD01E60FF71FE556FE4FC1
:101E70008081811137C2A556BE4FFD01E60FF71FC5
:101E8000818189274AC2082F10E070E095E1909F78
:101E9000E001919FD00D1124C556DE4FC60FD71F0C
:101EA0008A81811121C2780151E0E51AF1089E9DD5
:101EB00080019F9D100D1124600F711FDB01A6563C
:101EC000BE4F9C91911129C281E0E11126C280E0B0
:101ED00024C270E0282F30E0CB01A5E1EA9F800DFD
:101EE000911D1124FC01E656FE4F80818111FEC137
:101EF00045E1429FC001439F900D1124680F791F57
:101F0000DB01A756BE4F9C9181E0892706C2423073
:101F100009F449C028F4442351F0413039F175C126
:101F2000433009F476C0443009F496C06EC1E82FFE
:101F3000F0E070E085E18E9FE0018F9FD00D1124CD
:101F4000C556DE4FC60FD71F9B819111D1C1319766
:101F50008E9FD0018F9FB00D1124A556BE4FFD015D
:101F6000E60FF71F918181E08927D7C1E82FF0E0C4
:101F7000319670E085E18E9FD0018F9FB00D1124C6
:101F8000FD01E60FF71FE556FE4F80818111B2C1BA
:101F9000A556BE4FFD01E60FF71F91819111BDC1FE
:101FA00082818427BAC1082F10E070E09801225086
:101FB000310995E1929FD001939FB00D1124A60F96
:101FC000B71FA556BE4F8C91811196C101501109C2
:101FD000909FD001919FB00D1124A556BE4FA60F22
:101FE000B71F11969C91911198C185E1809FD001F6
:101FF000819FB00D1124A556BE4FA60FB71F129694
:102000008C9181117BC181E0E23008F086C180E0D3
:1020100084C170E095E1482F50E0DB01989FA00D4E
:10202000B11D1124A656BE4F8C91811169C1425039
:102030005109949F9001959F300D1124620F731FD9
:10204000DB01A556BE4F9C91911167C181E0E23042
:1020500008F063C180E061C1E82FF0E070E09F010B
:102060002F5F3F4F85E1829FD001839FB00D1124E8
:10207000A60FB71FA556BE4F9C91911143C1329632
:102080008E9F90018F9F300D1124620F731FFB01F3
:10209000E556FE4F908181E089273FC1423009F427
:1020A00055C028F4442351F04130B9F1AEC043305B
:1020B00009F476C0443009F499C0A7C070E06F5F9E
:1020C0007F4F25E1482F50E0EB01289FC00DD11D27
:1020D0001124FE01E556FE4F8081811115C1DA0100
:1020E00011972A9FF0012B9FF00D1124E60FF71F87
:1020F000E556FE4F9081911110C1CA010297289FA9
:10210000F001299FF00D11246E0F7F1FFB01E55692
:10211000FE4F908181E0892700C190E0019670E038
:1021200055E1589F9001599F300D1124E901C60FC8
:10213000D71FC556DE4F88818111E8C0620F731F1B
:10214000FB01E656FE4F80818427E7C0082F10E090
:1021500070E0C801039725E1289FE001299FD00D79
:102160001124C60FD71FC556DE4F88818111D0C0FC
:102170007801D1E0ED1AF10895E19E9D80019F9DC7
:10218000100D1124600F711FDB01A656BE4F9C91EC
:102190009111C3C081E0E33008F0BFC080E0BDC052
:1021A000282F30E070E0A9014F5F5F4F95E1949FC9
:1021B000E001959FD00D1124C60FD71FC556DE4FE5
:1021C00088818111A7C0929F8001939F100D1124D7
:1021D000600F711FDB01A756BE4F9C9191119DC0EE
:1021E00081E0E93008F499C080E097C025E1829F42
:1021F000F0011124E556FE4FE60FF11D818181119A
:102200008BC0928181E0892788C087C080E085C02B
:1022100080E083C080E081C080E07FC080E07DC03E
:1022200080E07BC080E079C080E077C080E075C04E
:1022300080E073C080E071C080E06FC080E06DC05E
:1022400080E06BC080E069C080E067C080E065C06E
:1022500080E063C080E061C080E05FC080E05DC07E
:1022600080E05BC080E059C080E057C080E055C08E
:1022700080E053C080E051C080E04FC080E04DC09E
:1022800080E04BC080E049C080E047C080E045C0AE
:1022900080E043C080E041C080E03FC080E03DC0BE
:1022A00080E03BC080E039C080E037C080E035C0CE
:1022B00080E033C080E031C080E02FC080E02DC0DE
:1022C00080E02BC080E029C080E027C080E025C0EE
:1022D00080E023C080E021C080E01FC080E01DC0FE
:1022E00080E01BC080E019C080E017C080E015C00E
:1022F00080E013C080E011C080E00FC080E00DC01E
:1023000080E00BC080E009C080E007C080E005C02D
:1023100080E003C080E001C080E0DF91CF911F9199
:102320000F91FF90EF900895CF93DF93CDE7D6E024
:102330008093BD06EBADFCAD0190F081E02D81E80E
:1023400096E00995EBADFCAD0280F381E02D81E8CC
:1023500096E0DF91CF910994FF920F931F93CF9353
:10236000DF93C82FD62F10929A068A01F12CF8011C
:1023700061918F01E0918306F091840681E896E0F7
:1023800009958F3FFFEF9F07E9F08E3F2FEF9207F0
:1023900071F39C014D2F6C2F81E896E00E946B1623
:1023A0002091DD06213049F030F0223041F0233019
:1023B00039F4D81B05C0C80F03C0D80F01C0C81B13
:1023C000F80ED5CF8F2DDF91CF911F910F91FF90F8
:1023D0000895DF92EF92FF920F931F93CF93DF93B5
:1023E000C82FD62FE42ED22E162F120FF82EF40E51
:1023F000012F2F2D462F682F81E896E00E94FC14B4
:10240000882309F100E02E2D4D2F6C2F81E896E0F6
:102410000E949A1501E02D2D4D2F6C2F81E896E03A
:102420000E949A156FEF6F0D2D2D4D2F81E896E0CC
:102430000E949A154FEF410F00E02E2D6C2F81E87E
:1024400096E00E949A15DF91CF911F910F91FF9016
:10245000EF90DF9008958F929F92AF92BF920F936B
:102460001F93CF93DF93CDB7DEB7A1970FB6F89444
:10247000DEBF0FBECDBF19A2423008F44AE08E0184
:102480000F5D1F4F842E912CA12CB12CA50194011E
:102490000E94B821E62FB901CA0101501109EA30A2
:1024A00014F4E05D01C0E95CD801EC93232B242BEC
:1024B000252B61F701151105A1F0F801019000200D
:1024C000E9F73197AF01401B510BE0917D06F09188
:1024D0007E060280F381E02DB8018DE796E0099534
:1024E00002C080E090E0A1960FB6F894DEBF0FBE68
:1024F000CDBFDF91CF911F910F91BF90AF909F9073
:102500008F9008959B01DC011896ED91FC9119972D
:1025100041E067E10994662329F06A3019F0862FBB
:1025200090E008958FEF9FEF08950F93DC01842FC3
:10253000FD01EE5BFF4F9081961B011103C0921BC2
:1025400001E002C0915000E0DF963C91DF97492FF7
:10255000431BD596ED91FC91D697682FCD01099537
:102560000F9108950F93DC01DF963C91DF97431B99
:10257000D596ED91FC91D69709950F910895CF933B
:10258000DF93FC01A081B18193AD892F880F880F63
:10259000880F86AF50968C915097803208F08FE16B
:1025A000880F880F880F85AF24AD822F880F880F82
:1025B000880F87AF51963C915197422F50E0490FB9
:1025C000511D632F70E06417750714F4932F921B4D
:1025D000EF01C05CDF4F8883219628E0929F800D39
:1025E00011248883219680EF888354968D919C9145
:1025F0005597813F910508F48883ED5BFF4F569610
:102600008C918083DF91CF910895CF93DF93EC017C
:102610000E94BF12E881F981DE01AD5BBF4F848962
:102620008C93CE5BDF4F86898883DF91CF910895AD
:102630000C94BF12EF92FF920F931F93CF93DF93EF
:10264000DC01942F9770E1E0F0E0092E01C0EE0F5D
:102650000A94EAF71E2FED01C658DF4F88818230B9
:1026600028F47E2F813019F410E001C070E050E0B2
:10267000487FD996ED90FC90DA97ED91FC911197F7
:102680008089849FF001859FF00D1124E60FF11DD4
:10269000EE0DFF1D01110CC02E0F8081872B8127AD
:1026A00081932E13FACF1DC0770F110F2223C9F08B
:1026B0003081372B312730839F5F977021509111E4
:1026C000F3CFDD968C91DD97E80FF11D8881823084
:1026D00020F4813021F011E002C011E0E7CF71E079
:1026E000E5CFDF91CF911F910F91FF90EF9008956B
:1026F00080E00895213039F020F0223031F4861B3B
:102700000895860F0895841B0895840F089521303D
:1027100039F020F0223031F4841B0895840F08959D
:10272000860F0895861B0895DC0118964C91189722
:10273000ED91FC911197249130E0042E02C0359563
:1027400027950A94E2F7862F840F883010F4E22F41
:102750000EC031961196FC93EE939491E92F98E078
:10276000941B01C0EE0F9A95EAF7E22B8850189659
:102770008C9381E090E001C0880F6A95EAF7815060
:102780008E2308951F93CF93DF93EC01A881B98125
:102790001C968C911C97683109F492C030F4643116
:1027A00009F482C0673149F0E2C0693109F4CDC053
:1027B000603209F0DCC06AE4D5C080FD5EC044230D
:1027C00009F4D3C0F90181919F014150DFB7F8941A
:1027D000A0910707B091080790910607E0910407C0
:1027E000F0910507C09103077091020781110DC098
:1027F0008C9198239C9388E090819C2B908390816E
:10280000972390838150C1F713C01091010758E0BE
:102810006C9187FF02C0612B01C069236C936081BA
:102820006C2B6083880F608167236083515081F730
:10283000DFBFC5CFF90181919F014150DFB7F89407
:10284000A0910707B091080790910607E09104074F
:10285000F091050770910307C0910207811110C024
:102860008C9198239C9388E090819C239083908105
:10287000972B90838150C1F7DFBF4111DBCF75C02B
:102880001091010758E06C9187FF02C0612B01C0D5
:1028900069236C9360816C236083880F6081672B50
:1028A0006083515081F7E8CF11964C9169E4CE01D5
:1028B0000E94EB1BE881F9814485417060E452C0BD
:1028C0004C9169E4CE010E94EB1BA881B981EA8595
:1028D000FB8520E030E012964C916CE2CE01099528
:1028E0008F8D90E0FC01E15BFC4FE491F0E0EE0F96
:1028F000FF1FE55CFC4F2591349130930507209331
:102900000407FC01ED59FC4FE491E0930307E095C7
:10291000E093020788A190E0FC01E15BFC4FE491A9
:10292000F0E0EE0FFF1FE55CFC4F259134913093F2
:10293000080720930707FC01ED59FC4FE491E09351
:102940000107E095E093060710C0EA85FB8520E0CB
:1029500030E013964C916CE2CE010995E881F98143
:10296000418169E4CE010E94EB1B81E001C080E05F
:10297000DF91CF911F910895DC011696ED91FC91A6
:10298000179720E030E040E068E109949A01DC010B
:102990001696ED91FC911797462F67E10994462F03
:1029A000DC011696ED91FC91179720E030E066E18E
:1029B0000994462FDC011696ED91FC91179720E0C3
:1029C00030E065E10994CF93DF931F92CDB7DEB776
:1029D0006983BE016F5F7F4F0E9482120F90DF916B
:1029E000CF910895462FDC011896ED91FC9119972F
:1029F00020E030E060E209940F93FC01EA5BFF4FB6
:102A0000308131965081451728F4301730F0041783
:102A100020F010C03017D8F30DC0FC01EC5BFF4F65
:102A2000308131968081681738F4321740F081E0A8
:102A3000261730F080E004C03217C8F3FBCF81E0E6
:102A40000F910895DF92EF92FF920F931F93CF9310
:102A5000DF93EC01FC01E55BFF4F10813297E080D2
:102A60003196F0803297D080012F2E2D4F2D6D2D75
:102A70000E94FC14FE01EC58FF4F811102C010822D
:102A80001DC081E08083FE01EC5BFF4F80818D15CE
:102A900008F4D082FE01EB5BFF4F8081E81608F45A
:102AA000E082FE01EA5BFF4F80818F1508F4F0821F
:102AB000C95BDF4F8881181708F41883DF91CF9125
:102AC0001F910F91FF90EF90DF900895FC01EC5B58
:102AD000FF4F1082DC01AE5BBF4F2C9111973C91F0
:102AE000231718F0422F431B4083FC01EB5BFF4F81
:102AF000DC01A05CBF4F3C91231B208331961082E8
:102B0000319613962C9120830C942215FC01EC5BDA
:102B1000FF4F10823196DC01AE5BBF4F2C912083BA
:102B2000319612972C912083319611962C91208307
:102B30000C9422150F93302FFC01EC58FF4F50815D
:102B4000552309F461C0222309F45EC0223048F005
:102B5000023019F46F5F621B04C0033011F44F5F41
:102B6000421B032F0170FC0130FD24C0EA5BFF4FC4
:102B70003081431708F448C031963081431708F07C
:102B800043C03297308131975081260F261730F499
:102B9000631718F42FEF230F03C0652F6317A0F5F9
:102BA000521790F5651708F4652F321708F4232F94
:102BB000261B21C0EC5BFF4F3081631728F1319653
:102BC0003081631708F53296308131975081240F98
:102BD000241730F4431718F42FEF230F03C0452FA9
:102BE000431790F4521780F4451708F4452F321715
:102BF00008F4232F241BDC01D796ED91FC91D89784
:102C00000480F581E02D09950F9108955F926F92F0
:102C10007F928F929F92AF92BF92CF92DF92EF926C
:102C2000FF920F931F93CF93DF935C01F62E642ED8
:102C3000EC01C05BDF4F1C81DD804C018AE7880E10
:102C4000911CEE80E11ACE2CFE1408F4CF2C5B8090
:102C50000C85202F4D2D612F8A810E947A13782EAA
:102C6000202F4D2D612F852D0E948713482F662020
:102C700011F09A8504C09985911108C09B85F401D3
:102C800090832C2D672DC5010E949A15FE1420F00B
:102C9000FE18D39410E0D5CF1F0D1C83DD82DF9189
:102CA000CF911F910F91FF90EF90DF90CF90BF9049
:102CB000AF909F908F907F906F905F900895FC01F0
:102CC000E60FF11D849190E0982F88273196E491CA
:102CD0008E0F911D08954F925F926F927F928F9207
:102CE0009F92AF92BF92CF92DF92EF92FF920F939B
:102CF0001F93CF93DF931F92CDB7DEB72C01062F22
:102D0000142F7901FC01E45AFF4F80818130C9F012
:102D100070F0823001F1833039F5F201E25BFF4F50
:102D20000190F081E02DC2010995080F1DC0F2014C
:102D3000E25BFF4F0190F081E02DC2010995180F71
:102D400013C0F201E25BFF4F0190F081E02DC20160
:102D50000995081B09C0F201E25BFF4F0190F08169
:102D6000E02DC2010995181BF201EE5AFF4F0083B6
:102D70003196108337978081918147962FEFE21625
:102D8000F10409F050F5E1E6EE16F10420F0F2014D
:102D9000E059FF4F07C0F1E4EF16F10438F0F201FB
:102DA000E259FF4F20813181820F931F9C012F5FD9
:102DB0003F4FF9014491442309F40EC1FC014491B1
:102DC00050E04E155F0521F48C010E5F1F4F34C09B
:102DD000F9012491820F911DE9CFF201EE58FF4FC6
:102DE000C080D180C80ED91E860160E0C6010E9455
:102DF0005F16080F191F62E0C6010E945F16F4E01B
:102E0000CF0ED11C8E159F0580F3F801849190E0C0
:102E1000982F88273196E4918E2B009709F4DCC017
:102E20008E159F0519F40D5F1F4F06C0F8013296ED
:102E3000E4910E0F111DE9CF0115110509F4CCC065
:102E40007201F0E5EF0EF11CF7011183008310868B
:102E500071966081C7010E949413F7018683729670
:102E60006081C7010E949413B82EF7018783620125
:102E7000FAE7CF0ED11CF6019081F701928781E02D
:102E8000911180E0F7018387F201ED59FF4F108126
:102E9000612FC7010E9494139FEF910F01E010E092
:102EA000980101C0220F9A95EAF7782E721AF20162
:102EB000EC59FF4FA0806A2DC7010E949413AA9479
:102EC000480101C0880CAA94EAF76B2C680EF20145
:102ED000EB59FF4FA0806A2DC7010E949413AA945A
:102EE00001C0000FAA94EAF7A82EA01AF7010681E4
:102EF00010160CF072C094858618292F482D672D66
:102F0000828199830E947A13182FF7018283998115
:102F1000292F482D672D83810E948713482FF701A1
:102F200083839981913091F060F09230A1F09330D9
:102F3000E9F4212F2B0D801B01E0040F41E0480F25
:102F400017C0212F200F082F0B0D12C09B1921E055
:102F5000210F080F09C081E0982F901B21E0210F5D
:102F60008B1901E0040F480F190F02C0082F212F01
:102F7000612FC2010E94FC14882379F1F7011482A9
:102F800015828201015A1F4F4201F0E68F0E911CFB
:102F9000F8016081C7010E949413682EF4016081DA
:102FA000C7010E949413782E40E0662DC2010E9452
:102FB000061641E0672DC2010E94061661E0C701B6
:102FC0000E9494138111F0CFF70185818B1504F3D2
:102FD0008285F601808301C0A12C8A2D0F90DF919C
:102FE000CF911F910F91FF90EF90DF90CF90BF9006
:102FF000AF909F908F907F906F905F904F900895CB
:10300000BF92CF92DF92EF92FF920F931F93CF93D5
:10301000DF9300D000D01F92CDB7DEB78C01DC016A
:10302000DB96BC90DB97DC96DC90DC97ED91FC9115
:10303000C188E12CF12CD801ED91FC911197808988
:10304000D9964D915C91DA971C829D2D9E0D9D83A2
:103050008B83B8E08B9FC00111248E9D90018F9DC2
:10306000300D9E9D300D1124CA01820F931F9A834B
:103070008983D8011496ED91FC9115979E012F5FDD
:103080003F4F41E06FE0C801099581E08E0D8B153F
:1030900038F4BFEFEB1AFB0A8D2D8E0D8C1558F20C
:1030A0000F900F900F900F900F90DF91CF911F9185
:1030B0000F91FF90EF90DF90CF90BF900895FC01AB
:1030C000A081B18150969C9143AD949FA0011124A1
:1030D00083E0440F551F8A95E1F760E070E081AD11
:1030E00092AD0C94F421CF92DF92EF92FF920F9366
:1030F0001F93CF93DF936C017A018B01C0E0D0E086
:10310000CE15DF0589F0D8016D918D01D601ED91C5
:10311000FC910190F081E02DC6010995892B11F4F5
:103120007E0102C02196ECCFC701DF91CF911F91A4
:103130000F91FF90EF90DF90CF900895833081F052
:1031400028F4813099F08230A1F008958730A9F0F9
:103150008830B9F08430D1F4809180008F7D03C035
:10316000809180008F7780938000089584B58F7759
:1031700002C084B58F7D84BD08958091B0008F77A3
:1031800003C08091B0008F7D8093B00008953FB759
:10319000F89480917D0790917E07A0917F07B09170
:1031A000800726B5A89B05C02F3F19F00196A11DE9
:1031B000B11D3FBFBA2FA92F982F8827820F911DCD
:1031C000A11DB11DBC01CD0142E0660F771F881F14
:1031D000991F4A95D1F7089585ED8093BC008091A1
:1031E000BC0084FDFCCF10925207089540912C073B
:1031F000262F30E0240F311D21323105DCF42091DF
:1032000052072430C9F4FC0180E090E0861758F49E
:1032100030912C072191DC01A65FB84FA30FB11D9F
:103220002C930196F3CF80912C07680F60932C07A5
:1032300080E0089581E0089582E0089508958FEF79
:103240009FEF08958FEF9FEF08958091090790E019
:103250009195819591090895CF93DF9300D0CDB7D3
:10326000DEB7CB01642F49835A830E94F618498147
:10327000842F5A81952F0F900F90DF91CF91089551
:10328000CF93DF931F92CDB7DEB7698361E0CE01A4
:1032900001960E94F61881E090E00F90DF91CF91A7
:1032A000089580E00895DC011696ED91FC91179742
:1032B00020E030E040E069E109940E94EF21EF92C4
:1032C000FF920F931F93CF93DF9300D0CDB7DEB75C
:1032D0007C01162F042F663159F028F46431C9F0AF
:1032E000653131F027C0673169F06A3118F511C0D6
:1032F00060E0C7010E94F214602FC7010E94E3142E
:1033000081E019C061E029833A830E94F2143A8176
:103310002981D7011896ED91FC911997402F612FC3
:10332000C7010F900F90DF91CF911F910F91FF90E8
:10333000EF90099480E00F900F90DF91CF911F9153
:103340000F91FF90EF900895CF93DF93282F30E0F7
:10335000F901E958FC4F8491F901ED59FC4FD491E2
:10336000F901E15BFC4FC491CC2391F081110E94E3
:103370009E18EC2FF0E0EE0FFF1FEB5BFC4FA591CA
:10338000B491EC91ED2381E090E021F480E002C063
:1033900080E090E0DF91CF9108951F93CF93DF936A
:1033A000282F30E0F901E958FC4F8491F901ED59DB
:1033B000FC4FD491F901E15BFC4FC491CC23C9F0DF
:1033C000162F81110E949E18EC2FF0E0EE0FFF1FC8
:1033D000E55CFC4FA591B4918FB7F894111105C02D
:1033E0009C91ED2FE095E92302C0EC91ED2BEC933D
:1033F0008FBFDF91CF911F910895CF93DF9390E01E
:10340000FC01ED59FC4F2491FC01E15BFC4F8491E0
:10341000882361F190E0880F991FFC01EF5CFC4F5D
:10342000C591D491FC01E55CFC4FA591B49161116B
:1034300009C09FB7F8948881209582238883EC91F6
:103440002E230BC0623061F49FB7F8943881822F2D
:10345000809583238883EC912E2B2C939FBF06C0ED
:103460008FB7F894E8812E2B28838FBFDF91CF91FF
:1034700008958F929F92AF92BF92CF92DF92EF9278
:10348000FF926B017C010E94C7184B015C01C114C3
:10349000D104E104F104F1F00E94C718DC01CB0172
:1034A00088199909AA09BB09883E9340A105B1056D
:1034B00070F321E0C21AD108E108F10888EE880E05
:1034C00083E0981EA11CB11CC114D104E104F104D5
:1034D00019F7DDCFFF90EF90DF90CF90BF90AF90C6
:1034E0009F908F9008951F920F920FB60F92112404
:1034F0002F933F938F939F93AF93BF9380917907BF
:1035000090917A07A0917B07B0917C073091780762
:1035100023E0230F2D3720F40196A11DB11D05C016
:1035200026E8230F0296A11DB11D209378078093F2
:10353000790790937A07A0937B07B0937C078091DB
:103540007D0790917E07A0917F07B091800701963B
:10355000A11DB11D80937D0790937E07A0937F07E7
:10356000B0938007BF91AF919F918F913F912F9121
:103570000F900FBE0F901F9018951F920F920FB6CD
:103580000F9211242F933F934F935F936F937F93E9
:103590008F939F93AF93BF93EF93FF938091B90065
:1035A000887F803609F49CC068F5883209F45BC0D6
:1035B00090F4803109F454C038F4882309F4F6C03B
:1035C000883009F44DC0F6C0883109F44CC080320F
:1035D00009F45DC0EFC0803409F468C048F480335A
:1035E00009F455C0883309F0E5C080935107D8C06D
:1035F000803509F44FC0883509F45DC0883409F07E
:10360000D9C0D6C0883909F4C7C0A8F4883709F4EE
:1036100067C038F4883609F463C0803709F460C0A5
:10362000C9C0883809F4B8C0803909F45FC080384F
:1036300009F0C0C05BC0803B09F486C038F4803A12
:1036400009F466C0883A09F47FC0B4C0803C09F42C
:10365000A7C0883C09F4A4C0883B09F48AC0AAC06A
:103660008091770710C09091760780917507981721
:1036700070F5E091760781E08E0F80937607F0E099
:10368000EB5AF84F80818093BB0085EC86C0809315
:1036900051078EC0E091760781E08E0F8093760708
:1036A0008091BB00F0E0EB5AF84F80839091760751
:1036B000809175076EC0E091760781E08E0F809350
:1036C00076078091BB00F0E0EB5AF84F8083809141
:1036D000540781116DC081E08093530784EA61C073
:1036E00083E08093520710925007CFCF809150070C
:1036F000803208F051C0E091500781E08E0F809336
:1037000050078091BB00F0E0E05DF84F8083BDCFB3
:1037100085EC8093BC001092520780915007803254
:1037200030F4E0915007F0E0E05DF84F10826091D6
:10373000500770E0E0912E07F0912F0780E397E0AB
:1037400009951092500736C084E08093520710927A
:103750002D0710922C07E0912A07F0912B0709956D
:1037600080912C07811105C081E080932C07109275
:103770000A07E0912D0781E08E0F80932D07F0E07E
:10378000E65FF84F80818093BB0090912D07809178
:103790002C07981708F479CF85E88093BC000AC0FD
:1037A00085EC8093BC001092520704C01092510720
:1037B0000E94EC18FF91EF91BF91AF919F918F9173
:1037C0007F916F915F914F913F912F910F900FBE1D
:1037D0000F901F901895DC011A96ED91FC911B97A4
:1037E00020E030E00994EF92FF920F931F93CF9364
:1037F000DF931F92CDB7DEB77C018B01D8016C91AE
:103800006731E1F078F46531A0F1F8014181498335
:10381000D7011696ED91FC91179720E030E0C70193
:10382000099524C06A31A8F06E3F19F5F80141816D
:10383000498369E2C7010E94EB1B18C0F80181812E
:103840008983AE014F5F5F4F61E0C7010E94C614DC
:103850000DC00F5F1F4FD7011696ED91FC91179782
:1038600020E030E040E0C7010995C8CF0E5F1F4F50
:10387000C5CF0F90DF91CF911F910F91FF90EF90E7
:103880000895CF92DF92FF920F931F93CF93DF9310
:10389000EC01142F69016E3009F444C06F3021F03F
:1038A0006B3009F05DC033C00E94BC14F601838107
:1038B000FC88F8E08F9FF00C11246F2D62956F70DB
:1038C0006061CE010E94D9146F2D6F70CE010E94ED
:1038D000D914F6016481606BCE010E94D914F601FF
:1038E0000281000F000F000FC080D1808F2D90E06B
:1038F000800F911D8538910514F004E80F19A60179
:10390000602FCE010E94C6141150C9F717C0411193
:1039100003C068E371E002C061E371E0CE010E9480
:10392000F31B1CC00E94BC1461E8CE010E94D91494
:10393000612F66956695CE010E94CF14CE010E943C
:1039400053190CC06D3009F444C0693009F055C0FA
:103950008EE691E09983888384E08C8B81E04EC071
:103960006A3081F7EA85FB8520E030E040E068E2DC
:10397000CE010995EE81FF8120E030E040E064E176
:10398000CE01099541E06BE4CE010E94EB1BE8817A
:10399000F981448169E2CE010E94EB1B40E06BE4B7
:1039A000CE010E94EB1BE881F981448169E2CE01DE
:1039B0000E94EB1B41E06BE4CE010E94EB1BE8810F
:1039C000F981458169E2CE010E94EB1B6DE471E053
:1039D000A5CF111109C06FE371E0CE010E94F31B66
:1039E000E881F9818289B9CF66E471E0CE010E9455
:1039F000F31BE881F9818389B0CF80E0DF91CF911B
:103A00001F910F91FF90DF90CF900895DC011496E5
:103A1000ED91FC91159720E030E040E060E10994E1
:103A2000CF93109274021092730288EE93E0A0E09C
:103A3000B0E08093750290937602A0937702B093E2
:103A4000780281E191E0909372028093710210926A
:103A5000800610927F068BE892E19093FE06809399
:103A6000FD061092FF061092000710929A0683E25C
:103A700091E090937E0680937D06109282061092CC
:103A80008106109296061092990610928D06109259
:103A90008E0610928F06109290068FEF80939706F5
:103AA00080939C06E0EAF6E09FEF86E18E0FCFEF71
:103AB00091938E13FCCF81E49CE1909386068093D2
:103AC00085068FE599E1909388068093870682ECBE
:103AD00093E190938A06809389068DE192E090931A
:103AE0008C0680938B0620E030E040E069E081E8BE
:103AF00096E00E94411C1092CE061092CD068AE1FB
:103B000093E19093B7068093B6068DE792E0909389
:103B1000BB068093BA0688E08093BC061092BD066F
:103B20001092DA061092FA0681E08093FB068093E9
:103B3000FC068BE291E09093B9068093B80681E889
:103B400096E00E9418131092C9061092CB06C093FB
:103B5000CA06C093CC06E091B806F091B90602807F
:103B6000F381E02D81E896E0099588E793E1909351
:103B7000D0068093CF061092DD068DE08093A006DC
:103B80008BE08093A1068AE08093A90689E0809368
:103B9000AA06C093AB06CF910895CF93DF9300D0D0
:103BA0001F92CDB7DEB7789484B5826084BD84B5AA
:103BB000816084BD85B5826085BD85B5816085BD28
:103BC00080916E00816080936E00109281008091E0
:103BD0008100826080938100809181008160809368
:103BE0008100809180008160809380008091B1008D
:103BF00084608093B1008091B00081608093B000B8
:103C000080917A00846080937A0080917A0082604B
:103C100080937A0080917A00816080937A0080910D
:103C20007A00806880937A001092C10062E080E0A0
:103C30000E94FD1962E081E00E94FD1962E086E0C9
:103C40000E94FD1962E087E00E94FD19E09185065F
:103C5000F091860620E030E040E06AE081E896E0FE
:103C600009958091FC06882321F081E896E00E9466
:103C70005F1880E00E94941181E896E00E9400188D
:103C80009091BD068091BC06192F180FE091810616
:103C9000F09182068189181770F181E896E00E9400
:103CA000061D80E00E949411E0918506F091860641
:103CB00020E030E040E06BE081E896E0099587E0A5
:103CC00091E09093B9068093B80681E896E00E944F
:103CD0000513E091B806F091B9060280F381E02D5A
:103CE00081E896E009958091CD069091CE068856A0
:103CF000904059F49EC08091FC06882321F081E811
:103D000096E00E945F18812FB5CFE8E6F0E0F093CF
:103D1000CE06E093CD06E491E093DE06E9E6F0E01E
:103D2000E491E093DF06EAE6F0E0E491E093E00658
:103D3000EBE6F0E0E491E093E106ECE6F0E0E491FC
:103D4000E093E206EDE6F0E0E491E093E306EEE6D0
:103D5000F0E0E491E093E406EFE6F0E0E491E09334
:103D6000E506E0E7F0E0E491E093E606E1E7F0E065
:103D7000E491E093E706E2E7F0E0E491E093E806FF
:103D8000E3E7F0E0E491E093E906E4E7F0E0E491B2
:103D9000E093EA06E5E7F0E0E491E093EB06E6E77E
:103DA000F0E0E491E093EC06E7E7F0E0E491E093E3
:103DB000ED06E8E7F0E0E491E093EE0661E188E6E5
:103DC00090E00E945F169093F0068093EF0663E107
:103DD00088E690E00E945F169093F2068093F106C9
:103DE00065E188E690E00E945F169093F406809368
:103DF000F3068091CD069091CE06892BD1F080916B
:103E0000EB068093F7064091EC064093F8069091FC
:103E1000F606992371F0913081F49091ED0689179F
:103E200014F49093F7068091EE06841714F48093AF
:103E3000F80680E090E021E01AC03091E806209179
:103E4000EA06082E000C990B622F022E000C770B4D
:103E5000630F711D37FD7A95861797071CF4320F93
:103E60003093F70624172CF72093F806E2CFFC01D5
:103E7000E556FE4F248B4596823D9105C1F780E4BF
:103E800080937C0080917A00806480937A00809196
:103E90007A0086FDFCCF609178008091790070E017
:103EA000782B072E000C880B990B61157105810585
:103EB000910511F00E947D210E94782124E030E0DC
:103EC00040E050E00E94862160939A0199249394E7
:103ED0008824839424E0422E512C612C712C3BE8E1
:103EE000E32E32E1F32E40E0A42E40E0B42E80E039
:103EF0000E94A419892BC1F4109102011930A0F479
:103F0000D090010141E06D2D812F0E944D06882344
:103F100059F06D2D812F0E949D0481E0810F8093C7
:103F200002016D2D0E94B20281E00E94A419892B2A
:103F3000C1F4109102011123A1F0D090010142E0DF
:103F40006D2D812F0E944D06882359F06D2D812FF4
:103F50000E949D048FEF810F809302016D2D0E94BE
:103F6000B20286E00E94A419892B59F51091000134
:103F7000812F8D7FD0900201C090010143E06C2D14
:103F8000811108C08D2D0E944D068823D1F06C2D23
:103F90008D2D0EC08D2D0E944D06882391F06C2D25
:103FA0008D2D133029F40E949D041092000105C04C
:103FB0000E949D041F5F109300016C2D8D2D0E94A7
:103FC000B20287E00E94A419892B59F510910001D3
:103FD000812F8D7FD0900201C090010144E06C2DB3
:103FE00081110FC08D2D0E944D068823D1F06C2DBC
:103FF0008D2D11110DC00E949D0483E0809300015E
:104000000CC08D2D0E944D06882359F06C2D8D2DEE
:104010000E949D041150109300016C2D8D2D0E9463
:10402000B20281E896E00E945F1826E644E360E071
:1040300086E00E94E911F0928406E092830646E849
:1040400051E060E781E00E94AC111AE11093FF0695
:1040500080E78093000760916F027091700280E0AA
:1040600090E04AE00E942B12F0928406E0928306D0
:104070004DE851E06AE781E00E94AC111093FF0621
:104080008AE7809300074AE061E070E080E090E01A
:104090000E942B12F0928406E092830644E951E0DC
:1040A0006AE786E20E94AC119BE9C92E91E0D92E05
:1040B00033E08EEF382E330EDB82CA8219E0EA81BC
:1040C000FB818081882311F125E045E0632D8EEF8F
:1040D000810F39830E94E9118091C7063981381711
:1040E000A8F08091C806381788F48091C506181783
:1040F00068F08091C606181748F400E021E0432FCD
:10410000612F81E896E00E949A1539818A819B810E
:1041100045969B838A831B5F1B3389F63B5F9FEF2A
:10412000C91AD90A373629F681E896E00E940018A4
:1041300081E896E00E94061D64E670E080E090E071
:104140000E94391A80916D0290916E020A9708F4CC
:1041500071C010910101D0900201612F8D2D0E943C
:104160009D0440E0612F8D2D0E944D06882321F093
:104170001F5F1093010154C0612F8D2D0E94B20268
:104180008092010185E08093020120916F023091BD
:10419000700263E180E090E070E0462F50E0FC01A7
:1041A000E40FF51FE556FE4FE081E1117F5F459674
:1041B000823D9105A1F77A3019F580E090E0FC018D
:1041C000E40FF51FE556FE4F10824596823D91059E
:1041D000B1F7862FE82FF0E0E556FE4F9AE0DF01B9
:1041E00011974C91442311F0908201C0108291509C
:1041F00075969111F4CF815069F72C593F4F6F5F3D
:10420000615041F63093700220936F0210920001CA
:104210000E947821A30192010E94862160939A0155
:1042200060910101809102010E94B20210926E021F
:1042300010926D0280916D0290916E0201969093A2
:104240006E0280936D02A114B10409F450CE0E9455
:1042500000004DCE8F929F92AF92BF92CF92DF928D
:10426000EF92FF92CF93DF93EC01688179818A818D
:104270009B81611571058105910521F464E279ED59
:104280008BE597E02DE133EF41E050E00E9486217D
:1042900049015A019B01AC01A7EAB1E40E94A521A2
:1042A0006B017C01ACEEB4EFA50194010E94B32137
:1042B000DC01CB018C0D9D1DAE1DBF1DB7FF03C0E2
:1042C0000197A109B04888839983AA83BB83BC0165
:1042D000CD019F77DF91CF91FF90EF90DF90CF904E
:1042E000BF90AF909F908F9008950E942A210895CB
:1042F00083E091E00E942A21089560930301709366
:10430000040180930501909306010895052E97FB03
:104310001EF400940E949D2157FD07D00E94B821F1
:1043200007FC03D04EF40C949D2150954095309598
:1043300021953F4F4F4F5F4F089590958095709511
:1043400061957F4F8F4F9F4F08950E94DA21A59F5F
:10435000900DB49F900DA49F800D911D1124089580
:10436000B7FF0C94A5210E94A521821B930B0895F1
:10437000A1E21A2EAA1BBB1BFD010DC0AA1FBB1F69
:10438000EE1FFF1FA217B307E407F50720F0A21BDB
:10439000B30BE40BF50B661F771F881F991F1A9448
:1043A00069F760957095809590959B01AC01BD0172
:1043B000CF010895A29FB001B39FC001A39F700DCC
:1043C000811D1124911DB29F700D811D1124911D1D
:1043D0000895EE0FFF1F0590F491E02D099481E000
:1043E00090E0F8940C94FB21DC0101C06D934150E6
:0A43F0005040E0F70895F894FFCF65
:1043FA000101040100000005136615951200000072
:10440A000040192C191A021E19251922191F190000
:10441A000000008702F1011A02190218138615B268
:10442A00121815AE15A519FF1815A415AF19FF18FE
:10443A0015A115C019FF1815A015C819FF1815E2FE
:10444A0015AE154015A115C015A615A2152F15F8FC
:10445A0016001523158116B415AE15A519FF00010E
:10446A0096320101327800093D00000428501008F4
:10447A0004008000400053434F52453A004C4556D1
:0A448A00454C3A004E45585400001E
:00000001FF
